:020000040800F2
:10000000A00700209D010008DD160008DF1600088B
:10001000E1160008E3160008E516000800000000DD
:10002000000000000000000000000000E7160008CB
:10003000E916000800000000EB160008EF160008A3
:10004000B7010008B7010008B7010008B7010008B0
:10005000B7010008B7010008B7010008B7010008A0
:10006000B7010008B7010008B7010008B701000890
:10007000B7010008B7010008B7010008B701000880
:10008000B7010008B7010008B7010008B701000870
:10009000B7010008B7010008B7010008B701000860
:1000A000B7010008B7010008B7010008B701000850
:1000B000B7010008B7010008B7010008B701000840
:1000C000B7010008B7010008B7010008B701000830
:1000D000B70100086714000879140008911400089B
:1000E000B7010008B7010008B7010008B701000810
:1000F000B7010008B7010008B7010008B701000800
:10010000B7010008B7010008B7010008B7010008EF
:10011000A9140008C1140008B7010008B7010008BD
:10012000B7010008B7010008B7010008B7010008CF
:10013000B7010008B7010008B7010008B7010008BF
:10014000B7010008B7010008B7010008B7010008AF
:10015000B7010008B7010008B7010008D51400086E
:10016000B7010008B7010008B7010008B70100088F
:10017000B7010008B7010008B7010008B70100087F
:10018000B7010008B7010008DFF80CD001F072FBDE
:1001900000480047F7150008A007002006488047E0
:1001A00006480047FEE7FEE7FEE7FEE7FEE7FEE75C
:1001B000FEE7FEE7FEE7FEE79B170008890100085F
:1001C0002849084328490860704730B50F23C27892
:1001D00001780125FAB1244A126801F1E02102F404
:1001E000E062C2F5E062C2F30722C2F10404D34028
:1001F0004278A24084781C401443220181F80024F4
:10020000007800F01F018D404009800000F1E020DF
:10021000C0F8005130BD01F01F0085404809800042
:1002200000F1E020C0F8805130BD104A1140014378
:100230000D48001F016070470B4A121D002911680C
:1002400001D0014300E08143116070474FF0E0218D
:100250000428086903D020F004000861704740F0CA
:100260000400FAE70000FA050CED00E080FFFF1F34
:10027000F848016841F001010160F64A00210832A6
:1002800011600268F44B1A400260031DF34A1A60C1
:10029000F04BF34A84331A60F04A103A1B1D1A607F
:1002A000026822F480220260EA480C300160181DC6
:1002B00001607047E7490022891C0A700870704786
:1002C00002460020510901290CD002290CD0E14935
:1002D0007431096802F01F02012393400B4200D0E1
:1002E00001207047DB49F4E7DA497031F1E718B5CE
:1002F00000204FF4A04400903120FFF7E1FF009967
:10030000491C0091A14201D00028F5D03120FFF70F
:10031000D7FF002800D0012018BDCE4A116821F077
:10032000F80141EAC00010607047CE49086070478C
:10033000C849002270310A700A70012802D00428CE
:1003400001D1052008707047C7490860704741EA2D
:1003500082115A0810B5C54B029C03EB02421143AF
:10036000014341EA0460BB49091D086010BDBD4955
:1003700008667047800140EA0170B6498431086020
:100380007047B84988667047800140EA0160B1490A
:1003900040EA0270883108607047B24908677047C8
:1003A000B049C8647047AB4B08331A68084322F061
:1003B000EC62104318607047A64B08331A68084374
:1003C00022F07842104318607047A24A0832116840
:1003D00021F003010143116070479E480830006816
:1003E00000F00C0070479B4A0832116821F0F001C0
:1003F000014311607047974A0832116821F4E051B7
:10040000014311607047934A0832116821F460413A
:1004100041EAC0001060704770B58E4B0833196810
:10042000934C11F00C0104D06610042903D0082964
:1004300003D004601BE0066019E0864A121D1168B3
:10044000C1F38055116801F03F0115B1B6FBF1F120
:1004500001E0B4FBF1F114681268C4F3881461433D
:10046000C2F30142521C5200B1FBF2F10160196863
:100470000F2202EA11117F4A545C0168E140416099
:100480001C68072505EA9424145D21FA04F48460AD
:100490001B6805EA5333D25CD140C16070BDC0F324
:1004A0000121032908D16B4B08331968724A21F4E2
:1004B000F81102400A431A60664970310A68C0F3B5
:1004C0000B0002430A60704767494439086070476F
:1004D00065494039086070476249C1F85C0170475E
:1004E0005C4A8C32116821F440110143116070475D
:1004F000584A8C32116821F4400101431160704761
:10050000544A8C321168401E21F01F0101431160D2
:100510007047504A8C3211686FF0FF0321F4F85194
:1005200003EB00200843106070474A4A8C32116880
:1005300021F440310143116070475049C1F8E00196
:100540007047444A30320029116801D0014300E06D
:100550008143116070473F4A34320029116801D04D
:10056000014300E08143116070473A4A3832002964
:10057000116801D0014300E0814311607047354AA2
:1005800040320029116801D0014300E0814311602D
:100590007047304A44320029116801D0014300E01D
:1005A0008143116070472B4A10320029116801D035
:1005B000014300E0814311607047264A143200294C
:1005C000116801D0014300E0814311607047214A66
:1005D00018320029116801D0014300E08143116005
:1005E00070471C4A20320029116801D0014300E005
:1005F000814311607047174A24320029116801D0E5
:10060000014300E0814311607047124A50320029D3
:10061000116801D0014300E08143116070470D4A29
:1006200054320029116801D0014300E08143116078
:100630007047084A58320029116801D0014300E090
:10064000814311607047034A60320029116817D056
:10065000014316E000380240FFFFF6EA10300024A4
:100660000030002000004742800E47420000FFFF9C
:100670000024F40000000020FFFCFF0F00104742A0
:10068000814311607047194A0029116801D0014364
:1006900000E081431160704714490C31012808685B
:1006A00003D020F008000860704740F00800FAE727
:1006B0000E4A573A0029117801D0014300E08143E6
:1006C0001170704709481030016841F08071016075
:1006D00070470146054A0020583A12680A4200D085
:1006E000012070470149563908707047643802404C
:1006F000CD4910B5884206D101211020FFF77BFFBC
:100700000021102020E0C949884202D101214C0477
:1007100029E0C749884202D101218C0423E0C54960
:10072000884202D10121CC041DE0C349884202D194
:1007300001210C0517E0C149884209D1012120207F
:10074000FFF759FF00212020BDE81040FFF753BFFD
:10075000BB49884202D101218C0704E0B949884293
:100760000AD1012144052046FFF73BFF2046BDE8A2
:1007700010400021FFF735BF10BD7FB50446008A49
:100780000D46C98820F4405001432182A08941F2DE
:100790000C618843A9882A8911436A89024311435D
:1007A000A181A08A20F44071A8890843A0826846EC
:1007B000FFF732FE9C48844202D0A048844201D117
:1007C000039800E00298A189090400EBC00101EB45
:1007D0000010296801D5490000E08900B0FBF1F064
:1007E0006422B0FBF2F109010B096FF018056B43AD
:1007F00000EB8300A3891D044FF0320306D503EB01
:10080000C000B0FBF2F000F0070005E003EB0010C1
:10081000B0FBF2F000F00F00084320817FBD4FF4E1
:100820001651016000218180C18001810C2242812A
:100830008181704710B5028A4C8822F470630A885F
:1008400022438C88C9880C4322431A43028210BD7C
:100850000021018041808180C18070470029818909
:1008600002D041F4005101E021F400518181704730
:10087000028B02F47F420283028B0A430283704799
:100880000029818902D041F4004101E0C1F30E0149
:10089000818170470029818A02D041F4006101E022
:1008A00021F4006181827047C1F3080181807047A3
:1008B0008088C0F308007047028A22F00F0202828B
:1008C000028A0A43028270470029818902D041F0DE
:1008D000020101E021F0020181817047828922F446
:1008E0000062828182890A4382817047028A22F0F3
:1008F00020020282028A0A43028270470029018A8A
:1009000002D041F4804101E021F48041018270472E
:10091000818941F00101818170470029818A02D0DB
:1009200041F0080101E021F0080181827047028B4B
:10093000D2B20283028B42EA01210183704700296F
:10094000818A02D041F0200101E021F02001818262
:1009500070470029818A02D041F0100101E021F0A6
:10096000100181827047828A22F004028282828A88
:100970000A43828270470029818A02D041F0020135
:1009800001E021F0020181827047002A828A01D0B1
:100990000A4300E08A438282704710B5C1F34213D4
:1009A00001F01F040121A140012B07D0022B07D029
:1009B0001430002A026805D00A4304E00C30F8E73E
:1009C0001030F6E78A43026010BD0246002012880C
:1009D0000A4200D001207047C9430180704770B5BA
:1009E00001F01F0501260024C1F3421306FA05F2A7
:1009F000012B0FD0022B0FD0838A4FEA11210088E0
:100A0000134206FA01F600EA060001D000B1012403
:100A1000204670BD8389F0E7038AEEE70A0A0121C8
:100A20009140C943018070470010014000440040DC
:100A300000480040004C00400050004000140140BD
:100A400000780040007C004070B55A484168491C5D
:100A50004160816811B18168491E8160AFF30080F7
:100A60000024554E18E006EB8405686890B1017BC0
:100A700081B1826872B1521E826069680AD1486988
:100A8000096988476868016881606868416809B9D0
:100A900000210173641CE4B23078A042E3D870BD39
:100AA000464801684FF47A70B1FBF0F0401EB0F197
:100AB000807F12D24FF0E0225061414BF02083F84A
:100AC000140D00209061072010613E48B1FBF0F149
:100AD0003848C160012101707047FEE73548007851
:100AE000002805D04FF0E020016941F002010161CA
:100AF00070474FF0E020016921F002010161704769
:100B00002DE9F0472C4C0546DDF8209020781E4654
:100B100017468846052802D30020BDE8F087182034
:100B200000F0F2FE0028F8D00560C0E901850773E7
:100B3000C0E90469217804EB810148602178491CEF
:100B40002170EAE71C4B30B400211A7806E003EB71
:100B500081046468844203D0491CC9B28A42F6D831
:100B60008A4218D003EB81004068EFF3108472B61C
:100B700005E003EB8102491C9568C9B255601A78FB
:100B8000521E8A42F5DC1978491E197004B962B602
:100B900030BC00F091BE30BC70470021017370473B
:100BA000012101737047016881607047416070479F
:100BB0000160704710000020AC0000209000002071
:100BC0000FE000E0C0C62D00A3490844C0F38F2009
:100BD00070472DE9F04F9A46DDE909B8894603468A
:100BE000FFF7F2FFC5B200204FF0030E0121814054
:100BF00011EA090F28D0994E36F815400C4326F813
:100C00001540DF6844000EFA04F6B7430BFA04FC03
:100C100047EA0C07DF601F6802FA04FCB74347EAA3
:100C20000C071F60012A01D0022A0DD15F6889B22A
:100C30008F430AFA00F189B20F435F60996808FA9E
:100C400004F4B14321439960401CC0B21028CDD3B5
:100C5000BDE8F08F00B5FFF7B7FF01218140804864
:100C600002681143016000BDFCB51646DDE907C509
:100C70000C00074608D0FFF7EDFFCDE900C532466E
:100C800021463846FFF7A5FFFCBD2DE9FC4F9946EC
:100C9000DDE90BB792460D00064622D0FFF7DAFFDA
:100CA000002201214FF00F0C01FA02F028420DD072
:100CB000D00806EB8003186A5407E40E0CFA04F817
:100CC00020EA080007FA04F420431862521C102A94
:100CD000EAD3CDE9009B5346022229463046FFF76E
:100CE00078FFBDE8FC8FF0B50E460546FFF76CFFB8
:100CF00000225A49C4B24FF0010C03270CFA02F348
:100D000033420CD028684FEA420E07FA0EFE40EA42
:100D10000E00286031F81400984321F81400521C8A
:100D2000D2B2102AEAD3F0BDF0B500220125032685
:100D300005FA02F30B4205D00468570006FA07F3E0
:100D40009C430460521CD2B2102AF1D3F0BDF0B51E
:100D500000220127032607FA02F33C460B4208D083
:100D60000568530006FA03FC25EA0C059C40254360
:100D70000560521CD2B2102AEDD3F0BDF0B50022AE
:100D80000125032605FA02F30B4205D0046857003B
:100D900006FA07F31C430460521CD2B2102AF1D3A6
:100DA000F0BDF0B5002201260324022706FA02F363
:100DB0000B4209D00568530004FA03FC25EA0C0530
:100DC00007FA03F31D430560521CD2B2102AEDD37B
:100DD000F0BDF0B500230127032507FA03F40C4208
:100DE00009D0C6685C0005FA04FC26EA0C0602FA83
:100DF00004F42643C6605B1CDBB2102BEDD3F0BDC0
:100E000041F48032C261C161C261C169C069704789
:100E1000002102E0491C89B240080128FAD808469E
:100E2000704700B5FFF7D0FE012181400C480268F1
:100E30008A43026000BD00B5FFF7C6FE074931F8DE
:100E4000100000BD00B5FFF7BFFE044931F81000E7
:100E5000C04380B200BD00000000FEBFC4000020FF
:100E600030380240FE4A0146904200D10020FD4A3F
:100E7000914200D10120FC4A914200D10220FB4A5C
:100E8000914200D10420FA4A914200D10520F94A4A
:100E9000914200D10620704770471CB508220321FB
:100EA00040B101280DD0032803D10821F148FFF7F4
:100EB000F3FF1CBDCDE9001201230022C021EE4842
:100EC00006E0CDE90012012300224FF48441EB48F3
:100ED000FFF7DBFE1CBD7CB530B1032803D1082130
:100EE000E348FFF7D9FF7CBD082503240123002236
:100EF0001903E148CDE90045FFF7C7FE01230022B1
:100F00000421DF48CDE90045FFF7BFFE7CBD1CB5DD
:100F10000822032140B101280DD0032803D1082164
:100F2000D248FFF7B9FF1CBDCDE900120123002212
:100F30000321D44806E0CDE90012012300224FF43A
:100F40004061CD48FFF7A1FE1CBD1CB5072203235D
:100F5000990250B101280ED0022812D0032803D1E3
:100F60000721C148FFF798FF1CBDCDE900320123DE
:100F70000022C5480CE0CDE9003201230022BE4822
:100F800006E0CDE90032012300224FF44071BC4855
:100F9000FFF77BFE1CBD1CB50722032140B10128D1
:100FA0000DD0032803D10721AE48FFF775FF1CBD04
:100FB000CDE90012012300220C21B24805E0CDE961
:100FC0000012012300226021AD48FFF75EFE1CBD28
:100FD0001CB50722032140B101280ED0032803D1FC
:100FE00007219F48FFF758FF1CBDCDE900120123E0
:100FF00000224FF4C061A34805E0CDE900120123AF
:101000000022C021A048FFF740FE1CBD944A0146C3
:10101000904200D19D48934A914201D19B481030A3
:10102000914A914201D199482030904A914201D190
:10103000964830308E4A914201D1944840308D4AD2
:10104000914201D19148503070472DE9FF4F87B050
:101050009A46DDE914B913460446DDF85C80FFF7D3
:10106000D5FF05467E488A4F0193844209D13868EE
:1010700040F0100038600898FFF7AAFF25208DF88F
:101080000000834E7748361F844209D1306840F40F
:10109000003030600898FFF77EFF26208DF80000B2
:1010A0007148844209D1306840F48020306008984B
:1010B000FFF74BFF27208DF800006C48844209D1D0
:1010C000306840F4002030600898FFF720FF34209B
:1010D0008DF800006648844209D1306840F48010E1
:1010E00030600898FFF7F7FE35208DF80000614862
:1010F000844209D1386840F0200038600898FFF732
:10110000CCFE47208DF800002046FFF7F1FA0126BB
:101110008DF8036006208DF801002046FFF7A2FE3F
:101120008DF802006846FFF750F81698ADF80A00EF
:10113000ADF80EB0ADF810A0ADF80C90ADF8088089
:101140000020287340F6FF700590411E059101D3E1
:101150000846FAE701A92046FFF70FFBA08940F0F7
:101160002000A0812E73A08940F40050A0810BB014
:10117000BDE8F08F2DE9FF410446394800250C26D3
:1011800017468846844206D1CDE9006502950023C2
:101190000395FFF75AFF3348844208D1CDE9006533
:1011A000029500233A4641460395FFF74EFF2E482D
:1011B000844208D1CDE90065029500233A464146B4
:1011C0000395FFF742FF2948844208D1CDE9006525
:1011D000029500233A4641460395FFF736FF24481F
:1011E000844208D1CDE90065029500233A46414684
:1011F0000395FFF72AFF1F48844208D1CDE9006517
:10120000029500233A4641460395FFF71EFFBDE8CD
:10121000FF812DE9FF470446114800250C261F4693
:1012200090468946844205D1CDE900650295039533
:10123000FFF70BFF0B48844208D1CDE9006502950A
:101240003B46424649460395FFF7FFFE0648844267
:1012500023D1CDE9006502953B464246494619E057
:10126000001001400044004000480040004C004095
:1012700000500040001401400008024000180240E5
:10128000000C024000000240000402402000002048
:10129000443802400395FFF7D8FE9448844208D1B1
:1012A000CDE9006502953B46424649460395FFF766
:1012B000CCFE8F48844208D1CDE9006502953B46BB
:1012C000424649460395FFF7C0FE8A48844208D14A
:1012D000CDE9006502953B46424649460395FFF736
:1012E000B4FEBDE8FF8710B50023FFF78FFEC1886D
:1012F00019B902894489A2420DD0428983889A4251
:1013000001D100224281036892B29B56521C428155
:1013100009B1491EC180D8B210BD10B50C46FFF707
:1013200075FEC38842890DE08188914200D1002278
:101330000168895CA14201D1012010BD521C5B1ED5
:1013400092B29BB2002BEFD1002010BDF0B5164633
:101350000F4684460024FFF759FE0546C08840B179
:10136000697B6046FFF7D9FF78B9E888A988884289
:101370000BD00020F0BD6046FFF7B5FF3855697B04
:10138000884205D0641CA4B200E0761EB442F2DBB1
:101390000021641CA0B23954F0BD00B5FFF736FE41
:1013A000C18829B901894089814201D1012000BD4C
:1013B000002000BD00B5FFF729FEC188808881426A
:1013C00001D1012000BD002000BD00B5FFF71EFEC9
:1013D0000021C1800181418100BD00B50B46FFF7AE
:1013E00015FE437300BD10B50C460346FFF70EFE15
:1013F000007B00280BD007E019880906FCD59880EF
:10140000641C18880006FCD520780028F4D110BD93
:1014100070B515460E460446FFF7F8FD007B002820
:101420000DD0002309E020880006FCD5F05CA080E8
:1014300020880006FCD55B1C9BB2AB42F3D370BD89
:10144000C388828893420DD20389934201D100223E
:10145000028103890268D1540189491C0181C18834
:10146000491CC180704724480188890603D58088BB
:10147000C1B22248E4E7704721480088800606D5BB
:101480001F48001D0088C1B21C481030D8E77047C3
:101490001C480088800606D51A48001D0088C1B285
:1014A00016482030CCE7704710480088800606D5E3
:1014B0000E48001D0088C1B210483030C0E77047A8
:1014C0000B480188890604D58088C1B20B4840309A
:1014D000B6E7704707480088800606D50548001D16
:1014E0000088C1B205485030AAE77047004C004060
:1014F0000050004000140140001001402000002076
:101500000044004000480040714A10687149C0F32F
:1015100040134878834204D080F0010048700120D5
:1015200008701068C0F380138878834204D080F07C
:1015300001008870022008701068C0F3C013C878DA
:10154000834204D080F00100C87003200870106846
:10155000C0F30023C879834202D080F00100C87133
:101560001068C0F34023487A834202D080F0010023
:1015700048721068C0F38023087A834202D080F05A
:10158000010008721068C0F3C022887A824202D03B
:1015900080F001008872504A1068C0F34013C87A86
:1015A000834202D080F00100C8721068C0F380133B
:1015B000087B834202D080F0010008731068C0F3FA
:1015C000C013487B834202D080F00100487310684A
:1015D000C0F30023887B834202D080F0010088732F
:1015E0001068C0F340220879824202D080F00100E6
:1015F0000871002070471CB500F0CFF800250324C7
:10160000334ECDE90054103E2B462A464FF47E61FE
:101610003046FFF729FB3048CDE9005400231A4635
:101620004FF478711038FFF71FFBCDE90054002309
:10163000012214213046FFF717FB264CFFF764FF09
:101640006079A1790646E27994F808C08A46084391
:10165000677AA37A42EA0C01394399461943E57A3D
:10166000237B294394F80D80194351EA0801E5D002
:101670002178012906D002290BD00329DED1A17BD4
:10168000D9B915E0A17BC1B961782A430A42D5D006
:1016900013E0A17B89B9A1784CEA030C0CEA010C98
:1016A0001CEA0A0F09D11F430F403742C6D004E09D
:1016B000E27849EA08011142C0D00028BED000F00B
:1016C00001F8BBE70348002141718171084670476A
:1016D000100C024080000020100802407047FEE716
:1016E000FEE7FEE7FEE7704770477047704710B5AA
:1016F000FFF7AAF910BD00000CB500225449009272
:101700000192086840F4803008604FF4A0430868F4
:1017100000F4003001900098401C0090019810B92E
:1017200000989842F3D10868800334D501200190D5
:1017300047484030026842F08052026045480268E3
:1017400042F4404202604248083002680260026887
:1017500042F400420260026842F4A0520260031F99
:101760003D4A1A600A6842F080720A600A68920173
:10177000FCD53A4940F205720A60016821F0030184
:101780000160016841F0020101600168C1F381015B
:101790000229FAD10CBD01920CBD314810B5016887
:1017A00041F4700101602A48016841F001010160C3
:1017B000274A00210832116002682A4B1A40026051
:1017C000031D294A1A60026822F480220260204820
:1017D0000C300160FFF790FF21494FF00060803925
:1017E000086010BD70B51A4D083528681F4B204998
:1017F00010F00C0004D05E10042803D0082803D099
:101800000B601BE00E6019E0114A121D1068C0F356
:101810008054106800F03F0014B1B6FBF0F001E016
:10182000B3FBF0F013681268C3F388135843C2F394
:101830000142521C5200B0FBF2F0086028680C4ACA
:10184000C0F30310121D105C0A68C2400A6070BD2C
:10185000003802400070004008544007003C02403D
:1018600088ED00E0FFFFF6FE103000240024F400B5
:1018700090000020064C074D06E0E06840F00103B0
:1018800094E8070098471034AC42F6D3FEF780FC8A
:10189000741900089419000802E008C8121F08C152
:1018A000002AFAD170477047002001E001C1121FE1
:1018B000002AFBD17047000010B5002821D0114B41
:1018C0000022001F196803E0814203D80A464968D4
:1018D0000029F9D152B11368841A9C4204D10068DE
:1018E00018441060104602E0506000E0186039B102
:1018F00002680B1A934203D10B681A4402604968CC
:10190000416010BDA4000020F0B50B30154D20F053
:1019100007010024144A0FE003688B420BD38B426B
:1019200005D95E1A43184768C3E9006700E04368B9
:10193000136002C004E0021D10680028ECD12046AC
:10194000002802D1286808B10020F0BD064A0748E7
:101950001060074A121A22F00702C0E90024012091
:101960002860D7E7A8000020A4000020A4010020E0
:10197000A00300209419000800000020AC00000023
:1019800098180008401A0008AC000020F406000077
:10199000A81800080000000001020304010203046B
:1019A0000607080900000000000000000000000019
:1019B00000000000DA00002020000000000000000D
:1019C000000A0000FA0000202000000000000000D3
:1019D000000A00001A0100202000000000000000A2
:1019E000000A00003A010020200000000000000072
:1019F000000A00005A010020200000000000000042
:101A0000000A00007A010020200000000000000011
:101A1000000A0000000000000000000000000000BC
:101A200000000000007A030A00000000000000002F
:101A3000010203040607080900000000000000007E
:040000050800018965
:00000001FF
